:100000000C9462000C948A000C948A000C948A0070
:100010000C948A000C948A000C948A000C948A0038
:100020000C948A000C948A000C948A000C948F0320
:100030000C948A000C948A000C948A000C948A0018
:100040000C9445030C948A000C9413030C94ED0259
:100050000C948A000C948A000C948A000C948A00F8
:100060000C948A000C948A000000000024002700F1
:100070002A0000000000250028002B0000000008D6
:10008000000201000003040700000000000000005F
:1000900000000000230026002900040404040404D6
:1000A0000404020202020202030303030303010227
:1000B00004081020408001020408102001020408F6
:1000C0001020900411241FBECFEFD8E0DEBFCDBFBB
:1000D00011E0A0E0B1E0E4E9F0E102C005900D928A
:1000E000A236B107D9F722E0A2E6B1E001C01D9225
:1000F000A133B207E1F710E0C2E6D0E004C02197D7
:10010000FE010E944208C136D107C9F70E94ED04E2
:100110000C9448080C9400008F929F92AF92BF926B
:10012000FF920F931F93CF93DF93F0902E022BE05B
:100130002F1508F44CC02091300208E512E0021B94
:10014000110927FD1395000F111F000F111F20919A
:100150002F02C8E8D0E0C21BD10927FDD395CC0FF0
:10016000DD1FCC0FDD1F4E010D2E000CAA08BB08B1
:100170009801012E000C440B550B281939094A0926
:100180005B09DC010E94CC0624EB30E040E050E04B
:100190000E94A206820E931EA41EB51E8C169D06FA
:1001A0002CF0E801801691060CF4E4012297CC0FA4
:1001B000DD1F2FB7F8948F2D90E0FC01EE0FFF1F8D
:1001C000E80FF91FE75FFD4FD283C1832FBFDF9197
:1001D000CF911F910F91FF90BF90AF909F908F9004
:1001E0000895AF92BF92CF92DF92EF92FF920F935A
:1001F0001F93CF93DF936C017B018B01040F151FBD
:10020000EB015E01AE18BF08C017D10759F0699124
:10021000D601ED91FC910190F081E02DC601099588
:10022000892B79F7C501DF91CF911F910F91FF9035
:10023000EF90DF90CF90BF90AF900895FC01538D69
:10024000448D252F30E0842F90E0821B930B5417B0
:1002500010F0CF96089501970895FC01918D828D3D
:10026000981761F0A28DAE0FBF2FB11D5D968C91D6
:10027000928D9F5F9F73928F90E008958FEF9FEF15
:100280000895FC01918D828D981731F0828DE80FD1
:10029000F11D858D90E008958FEF9FEF0895FC018B
:1002A000918D228D892F90E0805C9F4F821B910958
:1002B0008F73992708958CE691E00E944F0121E009
:1002C000892B09F420E0822F089580E090E0892BAB
:1002D00029F00E945B0181110C9400000895FC013B
:1002E000A48DA80FB92FB11DA35ABF4F2C91848D97
:1002F00090E001968F739927848FA689B7892C93F4
:10030000A089B1898C91837080648C93938D848D46
:10031000981306C00288F389E02D80818F7D808349
:100320000895EF92FF920F931F93CF93DF93EC0109
:1003300081E0888F9B8D8C8D98131AC0E889F9898C
:10034000808185FF15C09FB7F894EE89FF8960838F
:10035000E889F98980818370806480839FBF81E010
:1003600090E0DF91CF911F910F91FF90EF90089552
:10037000F62E0B8D10E00F5F1F4F0F731127E02E2D
:100380008C8D8E110CC00FB607FCFACFE889F98965
:10039000808185FFF5CFCE010E946F01F1CFEB8DFB
:1003A000EC0FFD2FF11DE35AFF4FF0829FB7F89439
:1003B0000B8FEA89FB8980818062CFCFCF93DF9357
:1003C000EC01888D8823B9F0AA89BB89E889F9896D
:1003D0008C9185FD03C0808186FD0DC00FB607FCA2
:1003E000F7CF8C9185FFF2CF808185FFEDCFCE01D5
:1003F0000E946F01E9CFDF91CF91089590E0FC0159
:10040000E458FF4F2491FC01E255FF4F3491FC0169
:10041000E656FF4FE491EE23C9F0222339F0233052
:1004200001F1A8F4213019F1223029F1F0E0EE0FAA
:10043000FF1FEE58FF4FA591B4918FB7F894EC9140
:10044000611126C030953E233C938FBF089527301D
:10045000A9F02830C9F0243049F7809180008F7DC1
:1004600003C0809180008F7780938000DFCF84B5B8
:100470008F7784BDDBCF84B58F7DFBCF8091B000BB
:100480008F778093B000D2CF8091B0008F7DF9CF6D
:100490003E2BDACFCF93DF9390E0FC01E255FF4F84
:1004A000249186569F4FFC0184918823D1F090E0DF
:1004B000880F991FFC01E859FF4FA591B491FC01E9
:1004C000EE58FF4FC591D49161110EC09FB7F894BB
:1004D0008C91E22FE0958E238C932881E223E88390
:1004E0009FBFDF91CF9108958FB7F894EC91E22BE5
:1004F000EC938FBFF6CF3FB7F8948091680190914D
:100500006901A0916A01B0916B0126B5A89B05C055
:100510002F3F19F00196A11DB11D3FBFBA2FA92F82
:10052000982F8827BC01CD01620F711D811D911D7F
:1005300042E0660F771F881F991F4A95D1F70895EB
:100540008F929F92AF92BF92CF92DF92EF92FF92E3
:100550004B015C010E947B026B017C010E947B02CB
:100560006C197D098E099F09683E734081059105CC
:10057000A8F321E0821A9108A108B10888EEC80EFC
:1005800083E0D81EE11CF11C81149104A104B10484
:1005900029F7FF90EF90DF90CF90BF90AF909F90A2
:1005A0008F900895FC0101900020E9F73197AF0189
:1005B000481B590BBC018CE691E00C94F100CF93E1
:1005C000DF930E94D202EC0182E191E00E94D2020C
:1005D0008C0F9D1FDF91CF9108951F920F920FB640
:1005E0000F9211242F933F934F935F936F937F93B9
:1005F0008F939F93AF93BF93EF93FF938CE691E01C
:100600000E946F01FF91EF91BF91AF919F918F91E8
:100610007F916F915F914F913F912F910F900FBEFE
:100620000F901F9018951F920F920FB60F921124E2
:100630002F938F939F93EF93FF93E0917C01F09121
:100640007D018081E0918201F091830182FD1BC0D8
:100650009081809185018F5F8F7320918601821731
:1006600041F0E0918501F0E0E459FE4F958F8093D1
:100670008501FF91EF919F918F912F910F900FBE68
:100680000F901F9018958081F4CF1F920F920FB694
:100690000F9211242F933F938F939F93AF93BF9308
:1006A0008091640190916501A0916601B09167010C
:1006B0003091630123E0230F2D3758F50196A11DDA
:1006C000B11D209363018093640190936501A09311
:1006D0006601B09367018091680190916901A091D2
:1006E0006A01B0916B010196A11DB11D8093680153
:1006F00090936901A0936A01B0936B01BF91AF9190
:100700009F918F913F912F910F900FBE0F901F904F
:10071000189526E8230F0296A11DB11DD2CF1F9276
:100720000F920FB60F9211242F933F934F935F9325
:100730006F937F938F939F93AF93BF93CF93DF93E9
:10074000EF93FF9380916201C0912D02D0E087FF6B
:1007500024C01092850010928400809162018F5F06
:100760008093620180916201082E000C990B8C1716
:100770009D0724F4809162018C30C4F18091840043
:1007800090918500049680349C4908F47AC0809149
:10079000840090918500049676C080916201082EB5
:1007A000000C990B8C179D07C4F6E09162018E2F07
:1007B000EE0F990BFC01EE0FFF1FE80FF91FE75F2B
:1007C000FD4F808186FFC9CFE09162018E2FEE0F31
:1007D000990BFC01EE0FFF1FE80FF91FE75FFD4FBC
:1007E000808160E08F730E94FE01B7CF209184006A
:1007F00030918500E09162018E2FEE0F990BFC0184
:10080000EE0FFF1FE80FF91FE75FFD4F8181928117
:10081000820F931F9093890080938800E09162017A
:100820008E2FEE0F990BFC01EE0FFF1FE80FF91F43
:10083000E75FFD4F808186FF11C0E09162018E2F3E
:10084000EE0F990BFC01EE0FFF1FE80FF91FE75F9A
:10085000FD4F808161E08F730E94FE01FF91EF9157
:10086000DF91CF91BF91AF919F918F917F916F91C8
:100870005F914F913F912F910F900FBE0F901F905E
:10088000189580E49CE990938900809388008FEF0D
:1008900080936201E3CFCF92DF92EF92FF920F93AA
:1008A0001F93E82FF92F05C00150110921093109C3
:1008B00061F1908196239417B9F305C00150110995
:1008C0002109310911F1908196239413F7CFC12C9E
:1008D000D12CE12CF12C0AC08FEFC81AD80AE80AF3
:1008E000F80A0C151D052E053F0579F08081862339
:1008F000841791F36C2D7D2D8E2D9F2D1F910F91BF
:10090000FF90EF90DF90CF90089560E070E080E07E
:1009100090E01F910F91FF90EF90DF90CF9008959E
:1009200010926F0110926E0188EE93E0A0E0B0E0AB
:100930008093700190937101A0937201B093730141
:1009400084E091E090936D0180936C0185EC90E0E0
:10095000909379018093780184EC90E090937B01EF
:1009600080937A0180EC90E090937D0180937C01EC
:1009700081EC90E090937F0180937E0182EC90E087
:10098000909381018093800186EC90E090938301A5
:100990008093820110928501109286011092870146
:1009A0001092880180912D028C3098F491E0980F7C
:1009B00090932D0280932E0290E0FC01EE0FFF1F1A
:1009C000E80FF91FE75FFD4F88EB9BE0928381837F
:1009D00008958FEF80932E020895CF93DF93CDB7C4
:1009E000DEB7A1970FB6F894DEBF0FBECDBF7894E7
:1009F00084B5826084BD84B5816084BD85B5826024
:100A000085BD85B5816085BD80916E0081608093D4
:100A10006E0010928100809181008260809381003D
:100A2000809181008160809381008091800081604D
:100A3000809380008091B10084608093B1008091A8
:100A4000B00081608093B00080917A0084608093D0
:100A50007A0080917A00826080937A0080917A0097
:100A6000816080937A0080917A00806880937A0018
:100A70001092C10080912E028C3008F051C061E0CC
:100A800089E00E944A0280912E02282F30E0F9016D
:100A9000EE0FFF1FE20FF31FE75FFD4F9081907C89
:100AA0009960908310922F02109230022CE0622FF6
:100AB0000E943608829FB001112430E020E0AB0193
:100AC000420F531FFA01EE0FFF1FE40FF51FE75F00
:100AD000FD4F908196FD16C02F5F3F4F2C303105A2
:100AE00071F781110FC01092800082E08093810025
:100AF0001092850010928400B19A80916F008260FC
:100B000080936F00E0912E028E2F90E0FC01EE0F9B
:100B1000FF1FE80FF91FE75FFD4F8081806480832E
:100B200090E080E00E948C0061E08CE00E944A022C
:100B300060E08DE00E944A02E0917C01F0917D012D
:100B400082E08083E0917801F09179011082E09158
:100B50007A01F0917B018FEC808310928401E09107
:100B60008001F091810186E08083E0917E01F09127
:100B70007F01808180618083E0917E01F0917F011F
:100B8000808188608083E0917E01F0917F01808187
:100B900080688083E0917E01F0917F0180818F7D6C
:100BA00080839FE0892E912C27EA222E20E0322E8E
:100BB0003AE0432E512C612C712C40E0A42E40E0F1
:100BC000B42E60E08CE00E94FE01C4010197F1F7B1
:100BD00061E08CE00E94FE0183E290E00197F1F772
:100BE00060E08CE00E94FE01EBEBF0E06491F1012B
:100BF0008491E82FF0E0EE0FFF1FE057FF4F859143
:100C0000949100E315E720E030E0462F0E944B046A
:100C1000611571058105910509F47BC06F5F7F4FF8
:100C20008F4F9F4F9F70611571058105910509F4E4
:100C300070C00E943D0726E933E44BE05DE30E946B
:100C4000A10720E030E040E05FE30E94A1070E949E
:100C500005078B0185E191E00E94D2026801012E17
:100C6000000CEE08FF08F7FE57C06DE28CE691E03D
:100C70000E94910122273327A9012C193D094E0911
:100C80005F0919A2CE0181967C01CA01B901A301B5
:100C900092010E94D406605DF70162937F012115E5
:100CA00031054105510589F7E114F10419F0C70137
:100CB0000E94D20280E291E00E94DF02043111051D
:100CC000B4F484E291E00E94DF0284EB90E00E94A1
:100CD0008C0068E873E180E090E00E94A00290E060
:100CE00080E00E948C008DE491E00E94DF0264E6C7
:100CF00070E080E090E00E94A002A114B10409F429
:100D000060CF0E945B01882309F45BCF0E94000042
:100D100058CF07EE13E09ECFA701960119A2CE018E
:100D200081967C01CA01B901A30192010E94D406F7
:100D3000605DF70162937F01211531054105510581
:100D400089F7B2CF052E97FB1EF400940E94B906D6
:100D500057FD07D00E94D40607FC03D04EF40C9434
:100D6000B90650954095309521953F4F4F4F5F4FB5
:100D7000089590958095709561957F4F8F4F9F4F07
:100D800008950E94F606A59F900DB49F900DA49F14
:100D9000800D911D11240895B7FF0C94C1060E9487
:100DA000C106821B930B0895A1E21A2EAA1BBB1B3E
:100DB000FD010DC0AA1FBB1FEE1FFF1FA217B30727
:100DC000E407F50720F0A21BB30BE40BF50B661F3D
:100DD000771F881F991F1A9469F760957095809501
:100DE00090959B01AC01BD01CF010895A29FB00178
:100DF000B39FC001A39F700D811D1124911DB29F4F
:100E0000700D811D1124911D08950E940C07689496
:100E1000B1110C949B0708950E94800788F09F579A
:100E200098F0B92F9927B751B0F0E1F0660F771F0E
:100E3000881F991F1AF0BA95C9F714C0B13091F004
:100E40000E949A07B1E008950C949A07672F782FB3
:100E50008827B85F39F0B93FCCF3869577956795C9
:100E6000B395D9F73EF490958095709561957F4F35
:100E70008F4F9F4F0895E89409C097FB3EF49095DB
:100E80008095709561957F4F8F4F9F4F9923A9F063
:100E9000F92F96E9BB279395F695879577956795F2
:100EA000B795F111F8CFFAF4BB0F11F460FF1BC036
:100EB0006F5F7F4F8F4F9F4F16C0882311F096E9C9
:100EC00011C0772321F09EE8872F762F05C0662377
:100ED00071F096E8862F70E060E02AF09A95660F30
:100EE000771F881FDAF7880F9695879597F90895E9
:100EF00057FD9058440F551F59F05F3F71F04795CB
:100F0000880F97FB991F61F09F3F79F087950895AF
:100F1000121613061406551FF2CF4695F1DF08C0CE
:100F2000161617061806991FF1CF869571056105EB
:100F300008940895E894BB2766277727CB0197F993
:100F400008950E94B4070C9425080E94170838F0F1
:100F50000E941E0820F0952311F00C940E080C94AA
:100F6000140811240C949B070E94780770F3959F36
:100F7000C1F3950F50E0551F629FF001729FBB2790
:100F8000F00DB11D639FAA27F00DB11DAA1F649F2C
:100F90006627B00DA11D661F829F2227B00DA11DDF
:100FA000621F739FB00DA11D621F839FA00D611D65
:100FB000221F749F3327A00D611D231F849F600D86
:100FC000211D822F762F6A2F11249F5750409AF0AF
:100FD000F1F088234AF0EE0FFF1FBB1F661F771F3B
:100FE000881F91505040A9F79E3F510580F00C9406
:100FF0000E080C949B075F3FE4F3983ED4F386956C
:1010000077956795B795F795E7959F5FC1F7FE2BA5
:10101000880F911D9695879597F9089597F99F6781
:1010200080E870E060E008959FEF80EC0895002470
:101030000A941616170618060906089500240A943D
:1010400012161306140605060895092E0394000CC3
:1010500011F4882352F0BB0F40F4BF2B11F460FF52
:1010600004C06F5F7F4F8F4F9F4F0895991B79E0AA
:1010700004C0991F961708F0961B881F7A95C9F728
:1010800080950895EE0FFF1F0590F491E02D0994CF
:04109000F894FFCF02
:10109400000000009101F1001E01DE014F012D014D
:1010A40041010D0A0044697374616E63653A20005E
:1010B40020636D00566568C3AD63756C6F2064650D
:1010C4007465637461646F212041627269656E6442
:1010D4006F20626172726572612E2E2E00436572FA
:1010E40072616E646F20626172726572612E2E2E5F
:0210F4000000FA
:00000001FF
